:100000006F00D013000000004A0100004C01000006
:1000100000000000000000000000000000000000E0
:1000200000000000000000000000000000000000D0
:100030003A090000000000003A090000000000003A
:100040003A0900003A0900003A0900003A090000A4
:100050003A0900003A0900003A0900003A09000094
:100060003A0900003A0900003A0900003A09000084
:100070003A0900003A0900003A0900003A09000074
:100080003A0900003A0900003A0900003A09000064
:100090003A0900003A0900003A0900000000000097
:1000A000511126C022C206C4828282441244A24058
:1000B000310182802A86014593F6150091C232955E
:1000C00085810606F5F9828000000000634E050276
:1000D00063C305042E86AA857D5515C285466378BF
:1000E000B6006356C00006068606E36CB6FE014500
:1000F00063E4C500918D558D85820582F5FA828075
:100100008682C93F2E8582823305A04063D70500D1
:10011000B305B040C1B7B305B0408682653F330533
:10012000A0408282868263C70500634905005D376F
:100130002E858282B305B040E35B05FE3305A04007
:10014000513F3305B0408282000001A0B707EFBEE7
:1001500037E700E0938707083CC701A09317150015
:100160003E950A05814701008507E31EF5FE828062
:10017000EFF21FF35111C1477C80C1473EC48A850D
:100180008D47371501403EC223110100EF00B00634
:10019000310121BFEFF2DFF0C14537150140EF001B
:1001A000F00D21B7EFF2DFEFC14537150140EF0049
:1001B000500CE5BDEFF2DFEE85454145EF00703DA7
:1001C000453FC93F1305007DEF005057371500002C
:1001D00013054565EF106043C9BDEFF27FEC1301D5
:1001E000C1FD23000500A300050023010500A301B4
:1001F0000500230205002A8402C8230A01008D3F5E
:10020000C14537150140EF00B0075145EF001053CD
:100210005137130580029937C147FC849307800446
:100220003ED02C088D4737150140231D01003ECEDE
:1002300093045006EF00207CB5378547630EF50A1E
:100240009304500685376309050C93045006993FC3
:100250008547630FF50C0408A1473EC0930750067D
:100260003EC2893792476300050E7945C53D9C2003
:10027000860793F7F70F9CA03EC22D37054792479C
:100280006304E50E8247FD1793F7F70F3EC0F9F7B9
:10029000850493075101E391F4FCD93DE53D834288
:1002A0000101834311018344210103433101B385DB
:1002B0007200A695834741019A9593F5F50F638CDB
:1002C000B70C371500003E861305056F1AC61EC40D
:1002D00016C23EC0EF10C02E3243A2439242824764
:1002E000371500001A87A6861E8696851305857227
:1002F000EF10002D094531A8FD148D35E39E04F261
:10030000853D493D3715000013050567EF10E02FC7
:100310000D451301410251BB0545FD148135E393A1
:1003200004F2B935853D3715000013054568F9BF5E
:10033000FD142D35E39D04F0253DA93D3715000042
:100340001305056AE1B705453EC2093D9247FD1711
:10035000E39807F0313D3D3D371500001305C56BAF
:10036000EF10A02A114575B793E717009CA09307DB
:1003700050063EC2053D05479247E315E5F03EC2F3
:10038000F13B9247FD17F5F7E533293537150000A6
:100390001305856DF1B73715000023005400A30045
:1003A000740024A0A30164005CA01E8796861A86B0
:1003B000A68513050574EF10A020014599BFEFF243
:1003C0003FCE37540040AA84930704403E85B705CA
:1003D0000200EF00100DB7570040938707407DF5EE
:1003E00013050440854537040300EF00900505041C
:1003F000B757004013850740A285EF003009B75773
:1004000000407DD501469305E0041385074037047D
:100410000700EF00900613042408B7570040138527
:100420000740A285EF009006B75700407DD5A6850E
:100430001385074037040700EF00F0031304440856
:10044000B7540040A28513850440EF0030046DD9F5
:10045000854513850440EF00700081B9EFF25FC459
:10046000B707002003C40700498C13654400813F8F
:100470000545EF00D0281375B40F913713052003FD
:10048000EF00F0271DB1EFF2BFC12A841375050FED
:10049000F137131544001375050FC9377D14137414
:1004A000F40F8547094563F387000545EF001029E0
:1004B000EDBEEFF2FFBE111185453705200002C0E9
:1004C00002C202C402C602C802CA02CCEF00500E29
:1004D00085454145EF00F00B91477C80F1473EC4D4
:1004E0008A858D47371501403EC2312389478A8569
:1004F000371501407C800123E1679387076A3EC678
:10050000B707FFBF375400403EC8B70700043ECAD4
:100510006C00916713050440FC84EF00E0628545A0
:1005200013050440EF00607013052003EF00102155
:100530001305000325371545EF0050201305000370
:10054000313F0545EF00901F13050003013F0545AE
:10055000EF00D01E1305000211370545EF00101EF5
:10056000130580020D372145393F0545293F1945BF
:10057000193F3145093FB707002021472380E70095
:10058000710125B6EFF2DFB19377050F1314450023
:1005900013E517001374F40FD135136514007D3D76
:1005A0000545EF00B01911B6EFF29FAF2A8403059D
:1005B000040011E1DDBC1375F50F0504E137C5BF7B
:1005C000EFF21FAE09E513C50508753DF9BC93852B
:1005D00005FC13F5F50FD5BFEFF29FAC054565356A
:1005E000E9B4EFF2FFAB11C12145B707002023802A
:1005F000A700F1335DBCEFF2BFAA1301C1FC0545B2
:10060000EF00406DE924EF00D00B71651305052064
:10061000EF00B016B707002083A54701371500008B
:1006200013058576EF00D079D126AA85371500000D
:1006300013058577EF00D07837150000130585780E
:10064000EF00B07CBD35493F0545613F814501451F
:10065000853F371500001305457AB93781450545B3
:100660008537371500001305457B3D3F05651305AC
:1006700085BBEF00B00C0144353E8144B13FB71754
:1006800000001385477CEF0050784800B9365DE5DF
:1006900010839307C003050463E7C700188293071C
:1006A000400663F4E704371500001305057EEF00EC
:1006B000D075814501452937372500001305858010
:1006C000E53505458145ED3D372500001305C5811C
:1006D000E13D372500001305459BEF0010730565CC
:1006E000130585BBEF00900559BF9483B725000023
:1006F0001307F00D938505836800EF00906E9482D8
:100700001082B7250000938545840810EF00706DB6
:100710008145014575356800413D814505454D35AB
:10072000081059359C821882948310833725000065
:10073000A28513058585EF00B06861BF2AC0814599
:100740000145BD3D824709478504638DE706636F18
:10075000F7000547638CE702372500001305C594B1
:10076000A135372500001305059615A80D476385AB
:10077000E7061147E392E7FE372500001305C59110
:100780002535372500001305059311A837250000EE
:1007900013054589113D372500001305858AEF00B3
:1007A000D06681450545293D37250000130585970D
:1007B000E53B372500002286A6851305C598EF0086
:1007C000306001BF372500001305058CF13B37254C
:1007D00000001305458DE1B7372500001305C58ED0
:1007E000E133372500001305059055BFEFF25F8B0D
:1007F000371402401C403707FFF8414593E71700C4
:100800001CC05C40F98F5CC01C403707F7FE7D17A9
:10081000F98F1CC01C403707FCFF7D17F98F1CC0E7
:100820005C4041777D17F98F5CC0B7079F001CC4FF
:100830007D211C4C93E707021CCCB717014003A78E
:100840000740938607401377F7F023A0E74003A7FC
:1008500007401367070823A0E74089479CCAB7F7FA
:10086000FF1F03C5477D9307F00F6304F5007D89E3
:10087000BD21B72702409843C176FD16719B98C3EE
:1008800098431367170098C3B7170240D843D8C3DB
:10089000D843758FD8C3D843B7060001D8C398434F
:1008A000558F98C3984393166700E3DD06FED8433F
:1008B000B7160240719BD8C3D84313672700D8C32B
:1008C0002147DC42B18BE39EE7FE6FF00FFEEFF2B3
:1008D0002FFD371702405C43370400209146B18B4F
:1008E000130444016385D700A1466382D704B73758
:1008F0006E01938707601CC0B7160240DC420840B7
:10090000918313F7F700B707002093874700BA9742
:100910008C23DC4293F5F50F93F707083357B500A6
:1009200081E7EFF02FFB2A8718C06FF00FF85C43C8
:10093000B777DC02938707C07DBF01A09701002035
:10094000938141F0138101FC1305000A97F5FF1F05
:100950009385456B17F6FF1F1306C66A63FAC50039
:100960008322050023A0550011059105E3EAC5FE89
:10097000171500001305450697F5FF1F9385856839
:1009800017F6FF1F1306066C63FAC50083220500E5
:1009900023A0550011059105E3EAC5FE17F5FF1FD9
:1009A0001305456A938581806377B5002320050090
:1009B0001105E36DB5FEB7220000938202887390A3
:1009C00002308D427390428097F2FFFF93828263E0
:1009D00093E2320073905230EFF05FE19702000033
:1009E0009382A2C17390123473002030B7F7FF1FB7
:1009F00003A5477C8280944593F7060193F2F600A5
:100A000081C7DC41B3E2F20083D3050093F7F30F13
:100A1000A5C303230500611122C226C08147130428
:100A200080029304800405473316F70033F7C300B0
:100A30006312E602939527003D473317B70013472B
:100A4000F7FF33736700B395B20033E36500639D2E
:100A5000860050C985072147E397E7FC124423200D
:100A60006500824421018280E39696FE10C9DDB7BD
:100A7000828008456D8D3335A00082800CC982804C
:100A80004CC9828037030140032743009317350088
:100A900063D00702B707C0FFF517F98F37070007C4
:100AA000D98FD9CD370700F07D17798DC98F49A827
:100AB000635D0500B707E0FFED17F98F3707000703
:100AC000D98FBDCD06050581D5B7B7073000931680
:100AD00005013376F500C1826313F602370600F98B
:100AE0007D16B377C70003274300798E2322C30006
:100AF000A1C95581131745003395E60045BF9317EB
:100B0000B50063D407029357050113F6F7008D472C
:100B1000B397C70093C7F7FFF98F37070007D98F3F
:100B200085C1135755011207C1BF55811205339571
:100B3000A6009347F5FFF98F37070007D98FBDF55A
:100B4000370701405CC38280EFF28FD51111462137
:100B50002A8428002EC0692AC246C204C18093F4A8
:100B600004FCB7450F00938505243685C20436C2C0
:100B7000C180EFF02FD6458D420541814AA01E204D
:100B80009246C207C183F99BC207C1831EA0824758
:100B90009043E1679387076A9315160063E6C704DD
:100BA0003685EFF02FD3AA874205418191466373C2
:100BB000D50091471395070141814AAC1E20024799
:100BC00093E717001EA01E2056233227C207C183B9
:100BD000D18E93F757BFD58F1EA016275E27D58FCE
:100BE0001EA471016FF06FCC8247EA23B167FD1735
:100BF0006310F502B2953685EFF0CFCD4205418105
:100C00009317450199E313651500A1675D8D75B7CD
:100C1000B387C5008E07B385C7003685EFF08FCB4D
:100C20004205418191675D8DE1BF1E2189C593E732
:100C300017001EA18280C207C183F99BC207C1832E
:100C4000CDBF1E2189C593E707101EA18280C20770
:100C5000C18393F7F7EFC207C183C5BF1E2189C5C2
:100C600093E707201EA18280C207C18393F7F7DFB5
:100C7000C207C183C5BF0EA9828093F7E50F19C2D1
:100C800093E71500C207C1831EA982805E290A2D41
:100C900042055D8D6D8D220521810D8D1335150069
:100CA0008280611102C002C293D7C5012AC23EC030
:100CB0008247A205A18199CB9247D1073EC29247B4
:100CC000884321016D8D3335A00082809247C18118
:100CD000E107EDB7B707002023A0A70482803717EC
:100CE00002401C430E0593F777F05D8D08C38280A8
:100CF000EFF20FBB371702405C4391462A84B18B59
:100D00006385D700A1466380D708B7376E01938704
:100D100007601CC0B7160240DC42918313F7F7004E
:100D2000B70700209387C702BA978C23DC4218408C
:100D300093F5F50F93F707083355B70081E73A8528
:100D4000EFF04FB948C008C448C4B7170240DC43AD
:100D50008D46AD83FD8B13D737008A07F18BD98F72
:100D600013F6370113F7370063F4C600138747FF04
:100D7000B707002093878701BA978C23EFF08FB5D0
:100D800008C86FF08FB25C43B777DC02938707C067
:100D900049B799C5371702401C4F5D8D08CF828037
:100DA000B7170240984F1345F5FF798D88CF8280A1
:100DB00099C5371702405C4F5D8D48CF8280B717C9
:100DC0000240D84F1345F5FF798DC8CF8280EFF2EE
:100DD0002FAD1629F577FD17F58FF621DA252111AC
:100DE000D58F1EA95625FD779387379FF58FD6217E
:100DF0002A842EC0D58F9625D58FB625D58F5EA592
:100E00005E29C207C18393F7F7CF5D8F5AA94800C7
:100E1000C535B74701409387078082456312F406C2
:100E2000C2475A24139517003E9542070E05418785
:100E30003E958C41635807048605EFF0AFA99305F2
:100E400040062AC0EFF00FA982479314450093058E
:100E500040063E85EFF0CFAA5E24C207C18763D566
:100E600007020E059305400613052503EFF08FA634
:100E70001D89C98CC204C18006A461016FF0EFA274
:100E8000B24745B78A0555BF1205930540061305BD
:100E90002503EFF02FA43D89E9BF91C55E250967C1
:100EA000D98F5EA582805A25F977FD17F98FD5BFB6
:100EB00093F5F51F4EA182800A216D8D3335A00078
:100EC0008280EFF2EF9DB707002003A54701B71519
:100ED0007A0093850520EFF0EF9F1375F50FB707A4
:100EE00000202383A70493175500898F8A073E9516
:100EF0000E05B70700202392A7046FF00F9BEFF2B7
:100F00002F9A37F400E05C40AA85F99B5CC0B707D4
:100F1000002003C56704EFF0EF9908C823240400FC
:100F20001C4093E717001CC0B7F700E0D843058BBF
:100F300075DF9843799B98C36FF02F97EFF24F9628
:100F400037F400E05C40AA85F99B5CC0B70700203D
:100F500003D54704EFF00F9608C8232404001C4073
:100F600093E717001CC0B7F700E0D843058B75DF87
:100F70009843799B98C36FF04F93EFF26F922A8456
:100F80001165111185451305150221358545370574
:100F90002080EFF03FAF930700047C8037150140BD
:100FA0008D473EC28A85E147130505403EC4EFF0F8
:100FB0009FA422C637440140B70708006C00130500
:100FC00004803ECA02C8231C010011358545130563
:100FD0000480E13571016FF04F8DEFF26F8C71116C
:100FE000AE840144635DC402B747014013870780A4
:100FF0003A859305000432C0C135B74701401387D5
:101000000780024675D53387840083050700138562
:1010100007800504C205C181613D0246E1B7328502
:1010200011016FF08F88411106C62EC00DCD1841F9
:10103000AA8705C358417D5511CB8546631BD70050
:1010400098472300070023A207000545B24041014D
:1010500082809847824614A39847050798C7D843CB
:101060007D17D8C3DDB705468A85853FF9BF0111D5
:1010700022CC2EC206CE26CA2A84814793050002BE
:10108000634506029245BE95838505008DE563D8CC
:10109000C70263D4E702198E1305000293F52600F8
:1010A0002AC089C501E7930500032EC0858A8144C3
:1010B00095EAB2840DA08507F1B71D8EF1BF0146F8
:1010C000E1BF824522853AC832C63EC4A93FA24745
:1010D00032464247FD14E34690FEB2846353060055
:1010E0008144058E63C7E702A687924633879740FF
:1010F00036978305070095EDB284634490046353EB
:1011000006000146F2406244D2443305F600056110
:1011100082801D8FBA8793050003228532C83EC6A0
:101120003AC41137B24722474246FD17EDF7BA9449
:1011300065BF228532C63EC4FD35A24732468507CB
:101140006DB78245228532C43EC2F13DFD14224670
:10115000924765B7397106DE22DC26DA3EC2328359
:101160003A8689ED92469307000301476C08FC8696
:10117000FD3DF2506254D25421618280AA843684AB
:10118000AE8791CA294701446317E30063D5050080
:10119000B307B04005448646A30901021307310393
:1011A000938666FC36C49A853E8532CA3AC81AC60A
:1011B0003EC0EFE0FFF4A546824732434247524625
:1011C00063D4A600A2463695130505039306F7FFE0
:1011D000A30FA7FE9A853E8532CC3ACA1AC83EC6EE
:1011E00036C0EFE03FEFB24742435247624663F9F1
:1011F000670401CC29CA9247898BB1C79305D002F5
:10120000268532C40D3522467D169247918B95C3B3
:1012100006479307100632C4930500032685631E14
:10122000F7021135930580072685F53B2246090410
:1012300079161647924682452685153D229515BF9B
:10124000AA8702478DB782469307D0020144A38F35
:10125000F6FE9307E7FF3EC04DBFF13393058005CF
:10126000E1B70145828001458280130181FD22D0D2
:1012700026CE06D22AC4AE82328402C68144838539
:10128000020089EDA24781C781453E85693B9250A6
:1012900002542685F2441301810282809307500292
:1012A0006388F500224516C88504B53BC24239A8BB
:1012B0008387120013871200639CB70022459305B1
:1012C00050023AC88D3342478504BA82850245BF31
:1012D000D5DB9306B0026389D70463C8F600930692
:1012E00030026386D704814705A09306D002638A43
:1012F000D70093060003E398D7FE1387220089479F
:1013000021A0138722008547830607001306B00239
:101310006383C6046341D60213063002638BC602A0
:10132000BA820145A54681A0138722006DBF1387AD
:1013300022009147D1BF1306D0026389C60013066D
:101340000003E39FC6FC93E7270031A0050785470C
:10135000C1BF93E747000507E1B713162500329593
:1013600006053A95850203860200130706FD93756C
:10137000F70FE3F4B6FE1307E0029946631EE6009A
:1013800085028146A54503860200130606FD1377F4
:10139000F60F63F5E50236C6038702001306A006C2
:1013A000630DC70A6343E6021306C0046307C70A56
:1013B00013068006630CC70881452DA813972600E5
:1013C000BA968606B29685027DBF1306400763066D
:1013D000C7081306A0076302C7081306C0068145A5
:1013E000631AC700038612008D456314E600850268
:1013F0009145850203860200930300061307100639
:1014000063C4C300130710049303700663C4C306C8
:1014100093035006635576189303700463C1C304A5
:1014200093055004635DB61613073004E310E6EA33
:1014300018409303440016CA230CE1001EC8A30CF5
:1014400001000147BE862A862C0849A8038612009F
:101450008145E311E6FA890271BF8502B1BF9306A7
:101460003006E307D6FC63CFC60693068005630308
:10147000D602A9BD930630076304D60463CBC60227
:101480009306F0066304D60E9306000793E7470021
:10149000E31ED6E291466391D50C930384000C4081
:1014A000504016CA3AC23EC01EC8AA870147C1466C
:1014B00081A893065007630AD6069306800745BFA6
:1014C0001840B7260000930344009385C69C11C3BF
:1014D000BA85324716CA1EC8BE862A862245EFF054
:1014E0001FB90DA091466394D502930384000C406C
:1014F000504016CA3AC23EC01EC8AA870547A94630
:1015000022458533C243AA941E84D242C1B3B24657
:101510000C4016C836C23AC011042A8785462946AF
:101520002245EFF03FC3AA9451B39146639DD50085
:10153000930384000C40504016CA3AC23EC01EC8F5
:10154000AA8701476DBFB2460C4016C836C23AC0E2
:1015500011042A878146E1B7B24616C80C404146BD
:1015600036C23AC011042A8781465DBF9146639E08
:10157000D500930384000C40504016CA3AC23EC0C6
:101580001EC8AA870147A146A5BFB2460C4016C88F
:1015900036C23AC011042A878146214651B70C4011
:1015A0001306840040403AC22A87224532C83EC012
:1015B0002286B687A94616CA7D31AA944244B1B79D
:1015C0001301C1FD2EC832CAAA851008014506C6FE
:1015D00036CC3ACE3ED032C04939B2401301410236
:1015E0008280130141FD32CE3ED42AC67008FD57D9
:1015F000480006CC36D03AD202C23EC432C0EFF028
:10160000DFC6E2401301C1028280411122C426C21A
:1016100006C61C21AA840144DC818307310005042D
:1016200099EFA9479305310005460145DC81EFF0AC
:10163000DF9A2285B24022449244410182800546CD
:10164000930531000145EFF05F99B38784009C2337
:10165000DC81E1B7444854313120696E69746961B5
:101660006C697A6564206F6E205043340D00000071
:1016700044485431313A204E6F20726573706F6E5A
:1016800073650D0044485431313A20526573706FD0
:101690006E73652074696D656F757420310D00007F
:1016A00044485431313A20526573706F6E7365202F
:1016B00074696D656F757420320D000044485431B3
:1016C000313A204269742073746172742074696DB8
:1016D000656F75740D00000044485431313A204262
:1016E000697420656E642074696D656F75740D0092
:1016F00044485431313A20436865636B73756D20FB
:101700006572726F722E2043616C63756C617465D3
:10171000643A2025642C2052656365697665643AD5
:101720002025640D0A000000446174613A2025649C
:101730002025642025642025642025640D0A0000EE
:1017400044485431313A20526561642073756363B3
:10175000657373202D20543A25642E256420483A61
:1017600025642E25640D0A0053797374656D436CEE
:101770006B3A25640D0A00004368697049443A25B4
:101780003038780D0A0000004448543131202B20B5
:10179000493243204C43443136303220546573740F
:1017A0000D00000044485431312053656E736F7250
:1017B00000000000496E697469616C697A696E673E
:1017C0002E2E2E00417474656D7074696E6720440E
:1017D0004854313120726561642E2E2E0D000000B8
:1017E00044485431313A20556E726561736F6E61B1
:1017F000626C652076616C756573206465746563E1
:101800007465640D00000000496E76616C696420A7
:10181000446174612020202000000000436865635B
:101820006B2053656E736F72202020200000000033
:1018300054656D703A20202020202532642E2564C6
:101840002563430048756D693A202020202020251B
:1018500032642E25642525005355434345535320B8
:10186000232564202D2054656D7065726174757236
:10187000653A2025642E2564A1E3432C2048756D2C
:1018800069646974793A2025642E256425250D0A3A
:101890000000000044485431313A2054696D656FAE
:1018A00075742020000000004448543131204572F6
:1018B000726F723A2054696D656F75740D00000087
:1018C00044485431313A20436865636B73756D2029
:1018D000000000004448543131204572726F723A62
:1018E00020436865636B73756D0D00004448543187
:1018F000313A204E6F205374617274200000000052
:101900004448543131204572726F723A20537461E9
:101910007274207369676E616C0D00004448543125
:10192000313A204461746120457272200000000049
:101930004448543131204572726F723A20446174C8
:10194000612072656164696E670D0000444854311E
:10195000313A20556E6B6E6F776E202000000000CC
:101960004448543131204572726F723A20556E6B83
:101970006E6F776E0D000000436865636B20436FE8
:101980006E6E656374696F6E000000004572726F61
:101990007220636F756E743A2025642C2053756332
:1019A0006365737320636F756E743A2025640D0A46
:1019B0000000000057616974696E67203320736509
:1019C000636F6E64732E2E2E0D0A0D00286E756CDB
:0419D0006C2900007E
:1019D40008000000010203040506070801020304CD
:1019E40005060708006CDC020204060804080C1053
:1019F40008101820102030402040608001020304A9
:101A04000506070801020304050607080000000094
:00000001FF
